:102000000080002031370000193700001937000028
:1020100000000000000000000000000000000000C0
:102020000000000000000000000000001937000060
:102030000000000000000000193700008537000094
:102040001937000019370000193700001937000050
:102050001937000019370000193700001D3700003C
:1020600019370000F53D000019370000193700004E
:102070001937000019370000053E0000193700002D
:102080001937000019370000193700001937000010
:102090000000000019370000193700001937000050
:1020A00019370000193700001937000019370000F0
:1020B0000000000010B5064C2378002B07D1054B1B
:1020C000002B02D0044800E000BF0123237010BDA4
:1020D00010010020000000002475000008B5084B26
:1020E000002B03D00748084900E000BF07480368F9
:1020F000002B03D0064B002B00D0984708BDC046EC
:1021000000000000247500001401002004010020DC
:102110000000000010B50820012101F07FFD08201B
:10212000002101F0D5FD0920012101F077FD0920F2
:10213000002101F0CDFD0F20012101F06FFD0F20E6
:10214000002101F0C5FD0020012101F067FD002004
:10215000011C01F0BDFD0120011C01F05FFD01200B
:10216000002101F0B5FD0C4C9621201C890100F0E6
:1021700063F90121082001F0ABFD084801F010FBD4
:102180000820002101F0A4FD0549201C01F050F9B0
:102190000C2001F07DFC10BD2C0100201027000058
:1021A000006F00000000000073B501210F2001F056
:1021B0008FFDFA20400001F0F3FA132001F0BCFC7F
:1021C0000021051C0F2001F083FD474C4749201CCE
:1021D00001F01CF90A22291C201C01F078F944495D
:1021E000201C01F013F9281C02F0B4FE414902F052
:1021F000F7FB051C04F0B2FC0B1C0221021C009131
:10220000201C01F039FA3C49201C01F0FFF83B4941
:10221000281C02F00FFD04F0A1FC2E4B2C4A03F009
:1022200011FA2D4A2D4B03F077FE2D4A2D4B02F06B
:10223000EDFE04F0E5FC0021061C02F097F90028F1
:102240000BD12F49301C02F0A5F9FE21002805D141
:10225000301C02F0A9F9C1B200E001210A22201CC1
:1022600001F043F92749201C01F0D0F8281C264929
:1022700002F0D2F9254902F0B3FB0021051C02F05F
:1022800075F900280BD12149281C02F083F9FF21A0
:10229000002805D1281C02F087F9C1B200E0002116
:1022A0000A22201C01F025F901210D2001F010FD6A
:1022B000FA20800001F074FA00210D2001F008FDE1
:1022C000FA20800001F06CFA73BDC046C046C046DB
:1022D000333333333333F33F0000000000C06F402B
:1022E000000000000000F03F2C010020066F0000FD
:1022F0000C6F00000000B03A116F00000000404079
:1023000000007E43166F00000000204100007F4364
:102310003F20704713B502686B46D9710733546884
:10232000191C0122A04716BD08B50069022100F062
:1023300027FC08BD08B50069032100F037FC08BD83
:1023400038B50D1C041C131C006903212A1C00F065
:1023500029FD002801D10123636038BD10B5054C6B
:1023600023685A1C04D10368DB6898472060031C6B
:10237000181C10BD50000020074A08B51368591CEE
:1023800004D0012149421160181C03E000690221B8
:1023900000F0FAFC08BDC0465000002008B50378E4
:1023A0000349023303704222024800F0B1FD08BD28
:1023B0000C000020F705002010B50178031C4278BE
:1023C0000020A12908D1212A2FD118481849072215
:1023D00000F09EFD012028E0212926D1202A05D1E8
:1023E00013490722114800F027FC04E0222A10D1EB
:1023F0009A780F4BDA710E4B96221968D2009142EF
:1024000010D1DC7901231C400CD1FA2001F03CF9F9
:102410000AE0232A09D1DA789B7812021A43054B85
:102420001A6002E001F036F9002010BDF705002027
:10243000000000200800002070470000064BFA2131
:1024400089009960054900220831196004495A60E1
:1024500019611A767047C0462C010020206F0000D9
:10246000F705002070B5C2B219495301CB189E6818
:10247000184DC0242E40A40526439E60164E8001B0
:1024800009683018083258605201505C0726B04382
:102490000126304350549E6935402C439C610F4CBB
:1024A0005C61505C7024A0431024204350549C680D
:1024B0000B488A1820408024640320439860986861
:1024C0004021800B8003986053790B43537170BD9A
:1024D00000060020FFFFFF8F180400205402002098
:1024E000FF3F00F038B5041C08CC01211A78051C08
:1024F0000A431A708022201C0021520004F063FC61
:102500002B689A78D107FCD45C6238BD134BF0B5C8
:102510001B6899035A029B01C90ED20E5B0F1F293B
:1025200000D105211F2A00D11D22072B00D1032332
:1025300004688E01278D0A491F25394031432185C2
:1025400001682A400C8DAC4322430A8502681903B6
:10255000108D044B03400B431385F0BD24608000B5
:102560003FF8FFFFFF8FFFFFEFF3108303600123AE
:10257000436072B670470368002B02D162B6BFF3A6
:102580006F8F704737B50569041C6846002D12D15E
:10259000FFF7EAFF019B013B03D3621DD57FEDB23C
:1025A000F9E768460193FFF7E6FF0020854217D060
:1025B000206AE36913E0FFF7D7FF019B0025013B89
:1025C00004D3221C34321578EDB2F8E76846019343
:1025D000FFF7D1FF0020854202D0206BE36AC01ACA
:1025E0003EBD0000436810B51A68037A01215B0103
:1025F000D318FF339A7A0A439A72037A42685B01CE
:10260000D318C2689C6891040B4A090922400A4306
:102610009A60037A42685B01D3189A684021920B52
:1026200092039A6043681A68037A08335B01D318EF
:102630001A790A431A7110BDFF3F00F0F7B505691A
:10264000041C0E1C171C6846002D1FD1FFF78CFFC1
:10265000019B013B5A1C06D0621DD17F5A1E0029E6
:102660003AD0131CF6E768460193FFF784FF002574
:10267000E369BD4235D0226A934232D25A1CE261EC
:10268000A269D3181B7873550135F1E7FFF76CFF8A
:10269000019B013B5A1C08D0221C343215785A1E6B
:1026A000EDB2002D18D0131CF4E768460193FFF734
:1026B00062FF0025E36ABD4226D0226B934241D3DC
:1026C00022E0621D0021D17730321678581E8E42EA
:1026D00014D1031C5A1CF4D168460193FFF74BFF39
:1026E00038E0226A934235D10023E361012323615C
:1026F0006846FFF739FF019B013BEBE71170201C97
:102700000193FFF76FFFF6E7226B934222D100237C
:10271000E36223616846FFF727FF019B013B5A1CD8
:10272000DAD0221C34320021117001321678581E82
:102730008E4201D1031CF2E71170201C0193FFF7B8
:1027400051FFEAE75A1CE262A26AD3181B7873555C
:102750000135AFE7281CFEBD37B54368027A1B6818
:10276000083252019A18041CD0790123FF21184223
:1027700053D0D371A068656962680140002D20D1F3
:1027800049015218916863618904890C2162A16A28
:1027900068465160621DD377FFF7E6FE019B013B5F
:1027A0005A1C33D0221C34321178581EC9B201325F
:1027B000002903D001930123137023E01170031C3F
:1027C000EEE74B01D3189A68A5699204920C226334
:1027D0000022626168465D60FFF7C6FE019B013B17
:1027E00001E011702B1C591C10D0221C3432012026
:1027F0001070621DD17F5D1EC9B230320029F0D049
:10280000019310706846FFF7B6FE06E06846019334
:10281000FFF7B1FE201CFFF7E5FE37BD37B50023FB
:102820006C46E3710734201C0D1CFFF7B7FD2B68C5
:102830001818286001F07EFB211C01F035FB2B6885
:102840001818286020783EBD03290BD10D4BB22209
:102850001B685200985C802149420143995402212F
:1028600068220CE001290CD1064B92221B68520011
:10287000985C802149420143995402212822FF3269
:10288000995470470006002038B5304B00240121D0
:10289000051C1A201C7001F0C1F91A20012101F059
:1028A00017FA2B4B192001211C7001F0B7F91920E0
:1028B000012101F00DFA274B2021DA6901200A439A
:1028C000DA61254B06241A7802431A70234B0F2233
:1028D00019789143197019782143197020490C789F
:1028E0002043087019780A401A701A7860210A4348
:1028F0001A701C4B1C4A5A805A78D209FCD11B48CA
:1029000000F048FF1A4C201CFFF7ECFD201CFFF7DD
:10291000FDFD23687F2219780A401A701A78042175
:102920000A431A701A890C218A431A81C121114A5B
:10293000890050580002000A5050802111601A7816
:1029400002210A431A7001232B7038BD14040020A1
:10295000FC05002000040040584400413C44004174
:1029600059440041000C0040064000009D33000027
:102970000006002000E100E00078002810D0094B9C
:1029800001211B681A898A431A811A8B08210A437C
:102990001A831A8B04210A431A83034B00221A60FC
:1029A0007047C04600060020040700200F4B9A69BC
:1029B000920B92039A611B680222FF331A72987974
:1029C0008022524202439A711A7A9007FCD5084B32
:1029D000081C997A7F221040914301439972997A99
:1029E000802252420A439A727047C0460006002075
:1029F0000050004110B50B790C1C002B0BD1081CAA
:102A0000FFF7DAFC002804D1094B9A69920B920374
:102A10009A6101200BE001F08DFA211C01F078FA97
:102A20000028F6D1024B9A69920B92039A6110BD6D
:102A300000060020F8B50D1C832A16D1CAB24249FF
:102A40005301CB189C694148AD012040C024A40526
:102A5000204398613E48083245195D610B68520178
:102A6000D15C70208143402065E0022A45D13820A6
:102A700000F0D4FE374B344F8026036076000023ED
:102A8000421D036203614361C36147608560C660A4
:102A9000D3772F32041CC36203631370301C53704E
:102AA00004F07EF9A061301C04F07AF9FF232A1C9F
:102AB0001A405201A062BF18B968244A07260A408A
:102AC000C02189050A43BA60A1686268194012688A
:102AD00008314901885CAD00B04303263043885477
:102AE000A16862680B405B01A169D3185960201C82
:102AF000FFF778FD184BEC5025E0822A1ED1CAB2B0
:102B000011495301CB189C691048AD012040C024E5
:102B1000A405204398610E48083245195D610B6891
:102B2000520199180C798020404220430871D15CF1
:102B30007020814330200143D15404E0002A02D1A7
:102B4000081CFFF78FFCF8BD00060020FFFFFF8F79
:102B500054020020506F0000D805002038B5051C35
:102B60000124064BA200D258002A06D0211C281CA2
:102B70000134FFF75FFFE4B2F3E738BD54000020F3
:102B800008B5084B8A00D058002803D003689B681A
:102B9000984706E0C9B2044B490159188868800477
:102BA000800C08BDD80500200006002010B50C1CC4
:102BB000FFF7E6FF00280CD0064BE1B21B68083196
:102BC000490159184A7980235B4213434B71022310
:102BD000CB7110BD0006002070B5CAB2134B14486B
:102BE000540189015918031959609D681149083227
:102BF00029408025AD022943996099684026890BB8
:102C0000890399600368510159180D7935430D7195
:102C10005101591889794D06FAD551015918C979C8
:102C2000CD07FAD50419A068C0B270BD1804002001
:102C300000060020FF3F00F038B50C4B141C1B6849
:102C40000D1CFF335A7940210A435A710021FFF7C6
:102C5000C3FFA04200D9201C0023A34204D0044A91
:102C60009A5CEA540133F8E738BDC04600060020FC
:102C70001804002010B5C9B20C48490143189A68DD
:102C80009204920C3F2A08D9141C9A68403CA40470
:102C9000920BA40C9203224302E09A68920B9203D7
:102CA0009A6041188868C0B210BDC0460006002076
:102CB000F0B51C1C2F4B85B01B68061C0D1C029226
:102CC000002B51D02C4F3978C9B2002902D11920DC
:102CD00000F0FEFF64233B70284BAA00D058002868
:102CE00005D0036802995B68221C984740E0301CBD
:102CF000291CFFF745FFA04204D2301C291CFFF716
:102D00003FFF041C291C301CFFF7B4FF1C4FE9B225
:102D10004A010191396803928B18FF335A7A0121D5
:102D20000A4318495A72AB01C9180298221C04F0D0
:102D300041F8002C1BD0301C291CFFF721FF002874
:102D400015D1019B3A6808335B01D31819794020EB
:102D5000014319710121D97103995318FF339A7AEC
:102D600001210A439A7202E00120404200E0201C47
:102D700005B0F0BD04070020FC050020D8050020A8
:102D8000000600201804002013B56C460734221CEE
:102D90000123FFF78DFF012801D1207801E00120F8
:102DA000404216BDF0B51C1C3F4B85B01B680E1C85
:102DB0000292002B6AD08023DB019C4266D83B4DF7
:102DC0002978C9B2002902D11A2000F081FF6423BA
:102DD00000222B700092002C56D0354DF7B22B6894
:102DE00001933B1C0833019A5B01D3189B79DB09E3
:102DF0001AD0304B3049186801F00EFB2F4B1721C9
:102E0000584301F009FB3B1C0833019A5B01D318BE
:102E1000DB799A0708D42A4B9A5D002A38D1421EE2
:102E2000002835D0101CEEE7254B00229A55251EB0
:102E30003F2D00D93F25234AB301D318181C02990E
:102E40002A1C039303F0B6FF194A7B01D318039A97
:102E5000A9045A619A69890C920B92030A439A61F8
:102E60003B1C019A08335B01D3180222DA715979AD
:102E7000802252420A435A71009B029A5B195219EE
:102E80000093641B0292A6E700980BE0012008E083
:102E900001229A557B01ED18AB69101C9B0B9B031B
:102EA000AB61404205B0F0BD0407002014040020CF
:102EB000000600208000002040420F007011010039
:102EC0004C0200205402002070B50E4D1C1C8B01DA
:102ED000ED18281C0E1C111C221C03F06BFFF6B20F
:102EE0000949760189194D618A69084B201C1340F4
:102EF0008B618B69A2049B0B920C9B0313438B6128
:102F000070BDC0465402002000060020FF3F00F0C4
:102F1000F7B5114B01901B780F1C141C002B19D115
:102F20000E4B1E78002E01D1151C08E00C4D0D48EB
:102F30002E888019361903F03DFF2E800AE0002DFF
:102F400008D0BA192B1C01980021FFF7BDFF3618D5
:102F50002D1AF4E7201CFEBDF6050020F405002024
:102F60004A02002049010020F8B50E1C00AF151ED2
:102F7000012D28D9D31DDB08DB006A46D21A9546FD
:102F8000081C03F08FFF01306C46400003232070C3
:102F900063700222AA420ED23378002B0BD0511C50
:102FA000C9B20136A354A94204D0002302326354AB
:102FB000D2B2EFE72A1C0548211CFFF7A9FF431EE8
:102FC0009841C0B200E00020BD46F8BDF7050020E2
:102FD00008B5044B00221A70034B04491A88FFF706
:102FE00097FF08BDF40500204A0200204901002097
:102FF000F0B5204A87B001230026009102A9137082
:10300000051C0296FFF70AFC03AC092701903A1C45
:10301000201C311C03F0D7FE02236370A023E37150
:10302000FA232372029B0122DB196380019B6271E8
:103030002371104A009B27701670BB4205D1281CD3
:10304000211C1A1CFFF764FF11E00B4B01221A70C0
:103050000A4B211C3A1C281C1E800296FFF758FFC1
:10306000281C02A9FFF7DAFB281CFFF7B1FF01209B
:1030700007B0F0BDF6050020F40500204A0200204C
:1030800070B5CE788AB0051C0C1C022E08D1C988F8
:103090002348FFF7ADFF031C581E8341D8B23DE023
:1030A00000F048FF211C00F014FF002803D0C317D4
:1030B0001B1AD80F32E0012E04D1E2881949112AD7
:1030C00027D823E0032E29D1A278002A05D116495A
:1030D000E2880B78934219D81BE0022A03D1A27927
:1030E000281C124904E0012A05D1A2791049281CA4
:1030F000FFF73AFF12E0032A10D100F01BFF01A9ED
:1031000000F0F7FEA279281C01A9F1E7D2B2002A4B
:1031100000D10A78281CFFF7FBFE01200AB070BD21
:10312000F70500206E6F00006A6F0000806F0000DE
:10313000606F000073B5051C48780C1C0B2878D80C
:1031400001F060F9081C7728773E4306474B686F0B
:1031500000206FE0097801AA002903D11170517095
:10316000281C09E0002313705370334B1B78012B8C
:1031700000D11370281C002102234FE08A7800231D
:10318000012A04D101AA137053702C4BEEE72A4A8E
:10319000137049E08E78012E07D1284B01AA002137
:1031A0001E701170281C331C38E0002E08D1224AF2
:1031B00001231370224A9169890B8903916138E0D8
:1031C000A178281CFFF7F2FB33E0281CFFF758FF1B
:1031D00030E0281C00211B4A1FE00A780020D3069B
:1031E00028D1281CFFF7BAFCA2781549154B0224F8
:1031F0001A600A682A23FF33D05C2043D0544A2047
:10320000FF30145C01231C4314548A69920B92030F
:103210008A610EE00C4A281C00210123FFF754FEAE
:1032200007E08A78084B1A60054B9A69920B920363
:103230009A61012076BDC04648010020F5050020B6
:103240000006002004070020F8050020F8B54B4BCD
:10325000071C1C78002C00D08EE0494D2868838B19
:1032600019070DD5201CFFF7FDF82B6810201A1C3C
:10327000FF32917A01439172424A146008229A8384
:103280002B689A8B50071FD504229A833E4B1A78DD
:10329000002A0AD01A78013AD2B21A701B78002B91
:1032A00003D11A20012100F013FD384B1A78002AAF
:1032B0000AD01A78013AD2B21A701B78002B03D1C7
:1032C0001920012100F004FD2B68FF331A7AD10682
:1032D00026D510221A725A7940210A432C495A7174
:1032E0000A786023381C1A4202D1FFF723FF01E05D
:1032F000FFF780FB002806D02B688022FF339979E6
:1033000052420A4301E0234B20229A712B68FF337B
:103310001A7A500604D540221A72597A0A435A7210
:103320002968FE230E8C00241E40E1B2002E23D01B
:10333000321C012322411A4216D0221C286808326E
:1033400052018218D079184203D1D279DA401A4258
:1033500007D0114BA200D058002809D003681B6881
:1033600098470123A3409E430134092CDDD103E09B
:10337000381CFFF769FAF4E7F8BDC046F4050020F1
:10338000000600200407002014040020FC05002093
:1033900018040020FF500041D805002008B502485D
:1033A000FFF754FF08BDC046F7050020014A024B55
:1033B0001A6070470050004100060020F7B58A18D7
:1033C000061C0D1C01920C1C019B671B9C4207D024
:1033D000336821781B68301C984701340028F3D1EA
:1033E000381CFEBD08B50368C9B21B68984708BD04
:1033F00038B5051C0C1C081E07D003F053FD2B68C4
:10340000021C5B68281C211C984738BD08B5FFF7D3
:10341000EFFF08BD08B503681B68984708BD0000AA
:1034200008B50249FFF7E4FF08BDC0468B6F0000F6
:1034300038B5041CFFF7DCFF051C201CFFF7F0FF6C
:10344000281838BDF0B58DB0161C0BAB00220190CA
:103450000C1C1A70012E00D80A266D462B35201C34
:10346000311C01F01DF8201CCFB2311C00F0D4FF3C
:10347000291C041C092F01D8303700E03737FFB270
:103480002F70013D002CEAD10198FFF7B1FF0DB07C
:10349000F0BDF8B5041C0D1C161E04D10368C9B29A
:1034A0001B68984712E00A2A0DD100290ADA2D215B
:1034B000FFF7B0FF6942071C321C201CFFF7C2FF58
:1034C000C01903E000E0D2B2FFF7BCFFF8BD08B5B9
:1034D000FFF7DFFF08BD08B5002A02D1FFF782FF22
:1034E00002E0D2B2FFF7AEFF08BD08B5FFF7F3FF69
:1034F00008BD38B5041CFFF7EEFF051C201CFFF7C4
:103500008FFF281838BD0000F7B51C1C08AB1B78CE
:10351000071C211C101C151C009300F043FF002801
:1035200002D1381C504907E0281C211C00F03AFF4A
:10353000012804D14D49381CFFF75AFF7CE0281CB4
:10354000211C404B3E4A00F0E1FF002802D0381C0D
:103550004749F1E7281C211C3B4A3C4B00F0C2FFC5
:103560000028F4D1281C211C394A3A4B00F0BAFF3C
:10357000002808D02D21381CFFF74CFF80210906B8
:103580000190641800E001900026334A334B009903
:103590008E420AD0101C191C314A324B02F052F8EC
:1035A0000136021C0B1CF6B2F1E7281C211C01F0AD
:1035B0002DFD0D1C041C01F00FF8061C03F09AFAF7
:1035C0000B1C021C291C201C02F036FF0A22041CC2
:1035D0000D1C381C311CFFF735FF019B0099C618E4
:1035E000002904D0381C2349FFF702FF3618009B3E
:1035F000002B20D01A4A1B4B201C291C02F08CFCEB
:103600000D1C041C00F0E8FF01900A220199381CEF
:10361000FFF718FF3618019803F06CFA0B1C021C18
:10362000291C201C02F008FF009B041C013BDBB29C
:103630000D1C0093DBE7301CFEBDC046C046C046F3
:10364000000000E0FFFFEF41000000E0FFFFEFC1DE
:103650000000000000000000000000000000E03F4B
:1036600000000000000024408E6F0000926F0000F8
:10367000966F00009A6F000013B5049CE1B20091B0
:10368000FFF742FF16BD0000014B18607047C046AF
:103690007C000020024B012252421A607047C04653
:1036A0007C000020154A1368581C25D0013B13608C
:1036B000002B21D172B6124A124B04329A4207D81B
:1036C000BFF34F8F104A114BDA60BFF34F8F11E0F9
:1036D0000F4B197DC807FBD5188B2021FF319208AD
:1036E000520001431983DA610A4A1A801A7DD10710
:1036F000FCD5E5E7C046FDE77047C0467C000020EA
:1037000000200000030200000400FA0500ED00E0C4
:103710000040004102A5FFFFFEE7000008B5034B93
:103720001B68002B00D0984708BDC0460807002042
:1037300038B50F490F4CA14204D100F073F800F0E6
:103740004DF80BE00C4D8D42F7D00023CA18E81855
:10375000A24204D2006804331060F7E7FEE790420B
:10376000EBD0064B064A9342E7D2002204C3F9E7A6
:10377000000000201001002028750000100100202A
:10378000CC08002008B500F026F8002801D100F090
:1037900017F808BD014B18607047C04608070020A5
:1037A00070B5041E08D0054B1D681E1C00F012F8F1
:1037B00033685B1BA342F9D370BDC0460C070020E1
:1037C00008B5034B1A6801321A60FFF76BFF08BD9A
:1037D0000C070020704700207047704710B500F0BC
:1037E000D5F803F0B7FAFFF7F8FF0120FFF7D8FF8D
:1037F000084C201CFFF748F8201CFFF7BDF8FEF727
:1038000089FCFEF7D1FC044B002BFAD000E000BF8E
:10381000F7E7C046F70500200000000008B503F0F8
:10382000BFFA08BD70B5494A1E21536802208B4378
:103830000343474953608B69082423438B61454CFC
:10384000454B9C829C8A20439882101CDA6894071E
:10385000FCD5424A012414701478E50704D53F4C86
:10386000647864B2002CF7DB01249460547864B26D
:10387000002CFBDB3A4D394C6560547864B2002C67
:10388000FBDB8225354CED016580547864B2002C59
:10389000FBDB02249C84DC68E606FCD5314D2E4C13
:1038A000E562DD682C4CEE06FBD5A58C2E4E35432B
:1038B000A584DD68284CEE06FBD5A58C0226354391
:1038C000A584DC682506FCD5234CE4686606F8D59B
:1038D000DC68E506FCD500249460547864B2002CC2
:1038E000FBDB224D1D4C656055781C4C6DB2002DE4
:1038F000FADB1E6A1E4D35401D621D6A8026B543E7
:103900001D620323A3601B4B636053785BB2002BE3
:10391000FBDB00230B72184A4B728B72CB72174B76
:10392000FF211A60164B174A1B6812685C01D20E01
:10393000214011439A06520F12020B1C1343124AE4
:103940001385436880221343436070BD00400041EB
:10395000000400400C06000000080040000C00407D
:1039600001050100B805FF7D040A000000070300FF
:10397000FFFCFFFF03060100006CDC02800000205A
:10398000246080002060800000400042314BFA211A
:10399000186810B5890000F03FFD2F4B01389842A0
:1039A00024D82E4A2E4B5060186AC0210002000A0B
:1039B0000906014319620024072194601160196A05
:1039C00080220902090A12060A431A62254BFC21C9
:1039D0001A6A0A431A62196AFC2292010A431A629D
:1039E000196AA022D2020A431A6200E0FEE7201CF4
:1039F0000021013400F012F9142CF8D11A4C63782C
:103A00005BB2002BFADB194B6380194B5A7ED2094B
:103A1000012AFAD0E422D2009A803F22DA70597E3D
:103A2000134AC9090129FAD0C0235B0100201361A0
:103A3000907000F053F863785BB2002BFBDB0D4A0B
:103A4000094B5A800C4BDA79D209012AFAD041226B
:103A50005A7010BD80000020FFFFFF0010E000E062
:103A600000ED00E000040040000C00401E4000009B
:103A7000004000422140000000480042914205D031
:103A800002D9891AC84001E0511A884070470000E5
:103A90000F4B302118600F4A0F4B0A2804DD98881D
:103AA000884398800C210DE0082807DD988888431A
:103AB000011C2020014399800A2103E098880143DA
:103AC0009980082111605A7ED209012AFBD07047E3
:103AD00088000020840000200040004200B5144A05
:103AE000517E131CC9090129F9D00138042813D8C3
:103AF0001969104A0A401A615A780F218A4300F066
:103B000081FC030509070300012102E0032100E015
:103B100002210A435A700AE01169F0231B050B4386
:103B2000136153780F218B4302210B43537000BD67
:103B300000400042FFFFFFF010B5041E062C05D028
:103B4000072805D0052804D80E3402E02C2400E014
:103B50002D24201C012100F0EBF80E2C0CD12A4B57
:103B6000DA79D209012AFAD01A7802218A431A7026
:103B7000DA79D209012AFBD0244B5A7ED209012AD4
:103B8000FAD018225443224A18691419217C1F22A2
:103B900090431140021C0A431A61597E1B4AC9090D
:103BA0000129FAD01178022001431170597E174A79
:103BB000C9090129FAD0117B0220014311730121A7
:103BC0001176597E114AC9090129FAD0117B0220C8
:103BD000014311731A7ED107FCD50C4A508B80B279
:103BE000597E0A4AC9090129FAD011780224A14351
:103BF00011705A7ED209012AFBD0064B1968064B78
:103C00001A68FFF73BFF10BD004800420040004229
:103C10009C6F0000840000208800002010B518244C
:103C2000021C201C5043274B1818007A40B2013068
:103C300046D0032944D8081C211C00F0E3FB0233C2
:103C40001121624398569A18C3011F4852681B18E5
:103C500099184031022008700121914059602FE0ED
:103C60006243985618499A185268C3015B1899180C
:103C700040310620087001219140596099611FE090
:103C800051435A56104859184B68D2011118C81898
:103C90004030062404700120984048600B495218B7
:103CA00050600DE0624398569A18C3010648526866
:103CB0001B18991840310220087001219140996029
:103CC00010BDC0469C6F00000044004110440041FC
:103CD00018235843134AF0B5131808241C5701340D
:103CE0001FD08256104ED2015D6801249019231C0A
:103CF0008668AB401E420BD10E1C771EBE41401998
:103D000034404030A50004780426B4432C430470AA
:103D1000002903D105495218536002E0024E92195E
:103D20009361F0BD9C6F00000044004110440041CD
:103D300018224243F8B52D4D0824AA181457031C25
:103D4000621C50D0481C00240C284CD800F05AFBB0
:103D5000071E1E1E1E1E1E1E1E0A0A0A0A0001241F
:103D6000644240E0092902D1181C002103E00A291D
:103D700004D1181C0221FFF751FF23E000240B2976
:103D800031D1181C0121FFF749FF2CE018225343C1
:103D9000EA185268EB560120141C04405508DB0158
:103DA000002C11D0124C1B195D1930352E780C01E6
:103DB0000F21314021439A18C9B22970403213783B
:103DC0001843107000240EE0094E0F279B195D194F
:103DD00030352E789A18BE433143C9B2297040322B
:103DE000137818431070201CF8BDC0469C6F00006B
:103DF0000044004108B5024800F0FCF908BDC04687
:103E00001007002008B5024800F0F4F908BDC046CC
:103E1000D4070020F7B5164F1649381C00F09CF85F
:103E20001549164800F098F81549164800F094F81E
:103E30001549164800F090F81549164800F08CF81E
:103E4000154D03260124281C144900F085F8391C5F
:103E50000096231C01940022114800F0A7F9009657
:103E6000291C01941F221E230E4800F09FF9F7BD64
:103E70009C08002000080042000C0042A00800201E
:103E800000100042A40800200014004298080020FE
:103E900000180042A8080020AC080020001C0042C6
:103EA00010070020D407002070B544680E1C0025C0
:103EB000002C09D02368201C5B68311C984700281F
:103EC00004DB2D18E468F3E7281C01E001204042E0
:103ED00070BD38B544680D1C002C08D02368201C28
:103EE0009B68291C9847002802D1E468F4E7201C4D
:103EF00038BD38B544680D1C002C07D02368201C41
:103F0000291CDB689847E4682D18F5E72C7038BD4C
:103F100038B544680D1C002C08D02368201C1B6891
:103F2000291C9847002803D1E468F4E7201C00E02E
:103F3000012038BD064B0122196810B51140054813
:103F400005D1022404700424447041601A6010BD3D
:103F5000B8080020B008002001607047F7B508AC31
:103F6000267804689D1E27686C1EA541ECB2920756
:103F700005683A4327063A432A6002680725294024
:103F80005068B501002C00D05C03294301430C4369
:103F90005460F7BD30B50368C0251C68AD03120539
:103FA0002A402243C024A40209042140114319607D
:103FB00003685A6814435C6030BD036801211A68C5
:103FC0000A431A600268116801231942FBD1D169C2
:103FD0001942F8D17047036802211A680A431A602F
:103FE0000268D3699907FCD4704703681A7ED10729
:103FF00002D41A7E9107FCD57047036800225A83C9
:1040000070470368187E4007C00F70470368187E2A
:10401000C009704703688022197E52420A431A760B
:1040200070470368188DC0B2704703681A7E01207C
:104030000242FBD0198570470368224A30B593428B
:1040400011D0214A934211D0204A934211D0204AE4
:10405000934211D01F4A934211D01F4A934230D14C
:104060000E2319220DE0092314220AE00A23152247
:1040700007E00B23162204E00C23172201E00D2396
:104080001822DCB2154901209B08A0409B00086063
:104090005B180320C021890004405D58E000FF2424
:1040A0008440A5432C1CC0258540281C2043585023
:1040B0008023DB011A430A4B5A805A7852B2002AF5
:1040C000FBDB30BD00080042000C00420010004243
:1040D0000014004200180042001C004200E100E011
:1040E000000C0040F8B5041C151C0E1C1F1CFFF72B
:1040F000A3FF201CFFF761FFB1001C220A406907E3
:104100002368090C0A431A60226884239375012EE0
:104110001AD10821012D00D110210C4B79431868C8
:10412000C00000F079F9236807219A890140D20480
:104130004903D20C0A439A8123680004C20C98896F
:10414000400B400310439881F8BDC046800000201A
:104150000120704708B50368014ADB69984708BD2C
:104160001304000010B5041C0069FFF726FF201C93
:10417000143000F0E6F810BD08B50069FFF735FF10
:1041800008BD08B5143000F0F7F808BD08B51430C4
:1041900000F0FBF808BD08B5143000F0D9F808BDF0
:1041A00008B50069FFF741FF012008BDF7B51D1CE8
:1041B00008AB1B78041C009309AB1B78161C0193F9
:1041C00000234360FA239B008360094B0F1C0833D4
:1041D0000360143000F096F8009A231CC033276166
:1041E0009A70019A1E705D70201CDA70FEBDC04688
:1041F000F073000010B5041C0069FFF702FF0028EF
:1042000007D02069FFF70DFF011C201C143000F0BF
:1042100086F82069FFF7FAFE002805D02069FFF72D
:10422000F9FE2069FFF7E9FE10BDF023081C1840D5
:104230003038434258417047F0231B011940802316
:104240009B0099420CD0C0239B00994206D080234A
:104250005B000520994204D0002002E0072000E026
:10426000062070470F231940012905D002394B421F
:104270004B410220C01A00E000207047F0B5031C3B
:1042800085B00391C033041C182718783B1C4343A6
:104290001B4E0821F3185956151CFFF749FD231C26
:1042A000C133187808214743F6197156FFF740FDCE
:1042B00001210A1C039B2069FFF714FF291C201C05
:1042C000FFF7BAFF291C071C201CFFF7CBFF291C96
:1042D000061C201CFFF7A9FF391C0090331C206925
:1042E0000122FFF73BFE231CC3331978013B1A78E8
:1042F0002069FFF74FFE2069FFF76DFE05B0F0BDA6
:104300009C6F000010B50021041CA42202F05BFD8C
:10431000221CA4320023201C1360536010BDF8B58A
:10432000051CA4352E68041C0F1C701CA42100F071
:10433000B7F8231CA8331B68994201D0A755296000
:10434000F8BD021C0023A432A8301360036070473C
:1043500038B5021C041CA834A432236812689342A6
:1043600007D0C55CA421581C00F09AF8281C2160D5
:1043700001E00120404238BD031CA433A8301A6874
:104380000368D01A00D5A4307047031C021CA83360
:10439000A4321B681268934201D0C05C01E0012086
:1043A000404270470B1C011C021C30B5194302200F
:1043B000002900D130BD802109068B4216D00D495D
:1043C00004205C180C498C42F4D90C4D5C198C42C9
:1043D000F0D90B4C590049080320A142EAD9074CF7
:1043E0000020A142E6D150425041E3E7002AE1D04B
:1043F000EFE7C0460000F0FFFFFFDF7F0000F07F27
:10440000FFFF0F0002B4714649084900095C4900EA
:104410008E4402BC7047C046002934D001230022DC
:1044200010B488422CD301242407A14204D2814233
:1044300002D209011B01F8E7E400A14204D2814243
:1044400002D249005B00F8E7884201D3401A1A43C0
:104450004C08A04202D3001B5C0822438C08A042F7
:1044600002D3001B9C082243CC08A04202D3001BAD
:10447000DC082243002803D01B0901D00909E3E727
:10448000101C10BC7047002801D00020C04307B4A6
:10449000024802A14018029003BDC0461900000066
:1044A0000029F0D003B5FFF7B9FF0EBC4243891ACB
:1044B0001847C0467047C0468446101C62468C466A
:1044C000191C634600E0C0461FB501F0A7FC002898
:1044D00001D40021C8421FBD10B501F0D7FB4042F6
:1044E000013010BD10B501F099FC002801DB00205F
:1044F00010BD012010BDC04610B501F08FFC002892
:1045000001DD002010BD012010BDC04610B501F036
:1045100007FC002801DC002010BD012010BDC046B2
:1045200010B501F0FDFB002801DA002010BD0120CC
:1045300010BDC0468446081C6146FFE71FB500F069
:1045400003FA002801D40021C8421FBD10B500F0B5
:1045500089F94042013010BD10B500F0F5F900288E
:1045600001DB002010BD012010BDC04610B500F0D9
:10457000EBF9002801DD002010BD012010BDC04670
:1045800010B500F099F9002801DC002010BD0120D1
:1045900010BDC04610B500F08FF9002801DA0020E8
:1045A00010BD012010BDC0469E2110B5C905041CD8
:1045B000FFF7F0FF002803D1201C00F0ABFC10BD7A
:1045C0009E21C905201C00F035FB00F0A3FC8023D0
:1045D0001B06C018F3E7C04638B50E4B0C4A041C46
:1045E0000D1CFFF79DFF002804D1201C291C02F0A0
:1045F0004DFA38BD074B064A201C291C01F01CFF50
:1046000002F044FA80231B06C018F2E7C046C046F9
:10461000000000000000E041F0B55F4656464D4600
:104620004446F0B446024500C00F85B00F1C760A20
:104630002D0E804641D0FF2D26D080242404002159
:104640002643F6007F3D89468B46F90F7C027800B1
:10465000640A000E00918A463CD0FF2834D08023A3
:104660001B041C430023E4007F380193009F434652
:10467000019A7B4049469C4611430F2900D971E0BD
:10468000764F89007F58BF46002E3ED10822022374
:1046900091469B46D9E75A46341CC246019201997D
:1046A000022937D0032900D1CFE0012900D0ABE0A7
:1046B00053460B400022002632E0002E19D104217F
:1046C000012289469346C0E7221C531E9A410232BA
:1046D0000192CBE701270197002CC7D0201C02F0E4
:1046E0001BFB431F9C4076235B420021181A01915B
:1046F000BCE7301C02F010FB7625431F9E406D4244
:1047000000232D1A99469B469FE70C2303219946C7
:104710008B469AE7D446012367463B40FF2200269A
:104720007602D205700ADB071043184305B03CBC83
:1047300090469946A246AB46F0BD80260023F6037C
:10474000FF22EDE700220026EAE78020C0030642B0
:104750003BD0044239D1061C26437602760A009BE0
:10476000FF22DDE7281A039076016401A64239D3BF
:10477000361B1A2201230120311C5B007600002920
:1047800001DBB44201D8361B0343013A002AF3DCB3
:10479000741EA641341C1C43039A7F32002A27DD75
:1047A000630704D00F232340042B00D004342701D7
:1047B00003D52B4B039A1C408032FE2A0BDD0123CC
:1047C00061460B40FF220026AAE706437602760ADE
:1047D0004346FF22A4E7A40101236746660AD2B23A
:1047E0003B409DE7039F1B22013F03970023C2E745
:1047F0007E23039F5B42DB1B1B2B07DD01236146EE
:104800000B40002200268BE7D446C5E7221CDA4085
:10481000039B9E339C40231C5C1EA34113435A07F9
:1048200004D00F221A40042A00D004335F0105D5BA
:10483000012361460B400122002671E79E0162467A
:1048400001231340760A00226AE78026F6032643F6
:104850007602760A5346FF2262E7C04620740000C3
:10486000FFFFFFF74A02430270B55C0A550A430096
:104870004A001B0EC60F120EC90FFF2B05D0FF2AD0
:1048800008D0012093420BD070BD0120002CFBD139
:10489000FF2AF6D10120002DF6D101209342F3D159
:1048A000AC42F1D18E4205D0002BEDD1201C441E2C
:1048B000A041E9E70020E7E74A024302F0B55C0ABD
:1048C000550A43004A001B0EC60F120EC90FFF2BDC
:1048D00031D0FF2A34D0002B16D16042604184468B
:1048E000002A14D0002820D18E4217D1934215DC23
:1048F00004DBAC4212D80020AC4212D270427041AC
:104900004042012318430CE0002AEDD194466F4247
:104910006F416046002805D1002FE5D07042012389
:104920001843F0BD0020002FFBD1484248414042CF
:1049300001231843F5E7002CCBD002204042F0E7DA
:10494000002DC8D0F9E7C0464A024302F0B55C0A20
:10495000550A43004A001B0EC60F120EC90FFF2B4B
:1049600027D0FF2A29D0002B10D0002A15D1944639
:104970006F426F416046002815D00020002F04D1FF
:1049800048424841404201231843F0BD6042604123
:104990008446002AECD00028F2D18E4211D0704219
:1049A00001231843F1E7002FF7D070420123184389
:1049B000EBE70220002CE8D1D3E70220002DE4D160
:1049C000D1E79342EBDC04DBAC42E8D80020AC42F8
:1049D000DBD270427041404201231843D5E7C04604
:1049E000F0B55F4656464D464446F0B44402460094
:1049F00083B00F1C640A360EC50F002E41D0FF2E67
:104A000022D080231B0400201C43E4007F3E82460A
:104A10008046391C4B007F02C90F7F0A1B0E8B4654
:104A20003BD0FF2B34D0802212041743FF007F3B82
:104A300000215A466A40019252460A430F2A63D81F
:104A40007A48920082589746002C3FD108220223D0
:104A500092469846DDE70195404602282AD1019A00
:104A600001251540FF2300246402DB05600AED07E1
:104A70001843284303B03CBC90469946A246AB4637
:104A8000F0BD002C27D10420012282469046C0E7C9
:104A9000391C4A1E91410231CBE70121002FC8D0B9
:104AA000381C02F039F9431F9F4076235B421B1AE2
:104AB0000021BEE7032800D1AEE001284FD10198C4
:104AC00042461040C5B200230024CDE70C2303204A
:104AD0009A4680469DE7201C02F01EF97626431F69
:104AE0009C4076420023361A9A46984691E78024E5
:104AF0000025E403FF23B7E75B463C1C019388468F
:104B0000AAE73C1C8846A7E7250C24043A0C240C91
:104B10003F04F6183F0C211C231C794353436F4379
:104B20005543FB180A0C9B18B1469F4202D98022BC
:104B30005202AD1809041A04090C521894011B0CF6
:104B4000611E8C41920EED181443AD012C432301DC
:104B500005D5012263080120144081441C434B46C3
:104B60007F33002B2DDD600704D00F222240042A62
:104B700000D00434220103D52D4B1C404B4680331A
:104B8000FE2B17DD019B01251D400024FF236BE751
:104B90008020C003044208D0074206D1041C3C43D5
:104BA0006402640A5D46FF235EE704436402640A0C
:104BB000FF2359E70198A4010125640ADBB20540EF
:104BC00052E77E235B424A469B1A1B2B05DD019B65
:104BD00001251D400024002346E7221CDA404B46F5
:104BE0009E339C40231C5C1EA3411343580704D0F2
:104BF0000F221A40042A00D004335A0105D5019B24
:104C000001251D40002401232EE701989C01012568
:104C1000640A0540002327E78027FF03019B3C43EC
:104C2000640201251D40640AFF231DE76074000033
:104C3000FFFFFFF7F8B5C20F430244004D024800E2
:104C4000240E161C9B09000EC90FAD09FF2800D1C8
:104C50007EE0012779408A4258D0221A002A00DCDF
:104C600089E000281BD1002D00D075E0580704D042
:104C70000F221A40042A00D00433590138D50134D8
:104C8000FF2C00D183E09B0101225B0AE0B232409D
:104C90005B02C405580AD20720431043F8BDFF2C1D
:104CA000E4D08021C9040D431B2A00DD2DE1291C1D
:104CB0002020D140821A95406A1E95410D435B1B0E
:104CC0005801D3D59B019F09381C02F025F8421FDB
:104CD0009740944260DC141B1F231B1B3A1C9F400F
:104CE000611C3B1CCA405F1EBB4113430024BDE74F
:104CF0000122DB08E0B23240FF2C04D1002B7ED031
:104D00008021C9030B435B025B0AC1E7211A00291A
:104D100046DD002826D0FF2CA8D08020C004054303
:104D20001B2900DDEFE0281C2027C840791A8D40A0
:104D3000691E8D4105435B19590197D50134FF2C3C
:104D40005CD0734901221A400B405B0813438DE786
:104D5000002D00D07FE77CE7013A002AAFD0FF2C7E
:104D6000A2D183E7002D00D180E701390029E2D0EC
:104D7000FF2CD5D17AE7002A1ED1621CD2B2012ABB
:104D80004EDD5F1B7A0126D5EF1A0E1C9CE701222F
:104D90003240FF2000237BE75D4BA41A3B4065E7D0
:104DA000002946D1611CC8B201282ADDFF2925D07F
:104DB000EB185B080C1C59E7002C13D0FF2818D007
:104DC0008024E404524223431B2A4DDD0123EB1AC5
:104DD000041C0E1C74E7002F00D075E70022002091
:104DE000002390E7002B3BD0D243002AEFD0FF28CE
:104DF000EAD12B1CFF240E1C38E70022FF200023E1
:104E000046E7002C5AD1002B77D0002D00D12DE79A
:104E10005B19580100D429E73D4A0124134025E7D6
:104E2000002C15D1002B2FD1002DD7D02B1C0E1C00
:104E30001CE7002C21D1002B53D0C943002904D0FA
:104E4000FF284BD01B294FDD01235B19041C73E79E
:104E5000002B22D1002DD0D02B1C0E1CFF2405E7E7
:104E60002B1C041C0E1C01E71C1C2026D440B21A6B
:104E700093405A1E93412343A9E7FF282ED0802454
:104E8000E40449422343DDE7002D00D1EEE65A1B3E
:104E9000500134D5EB1A0E1CE8E6FF24002D00D19A
:104EA000E4E68022DB08D203134204D0ED08154269
:104EB00001D12B1C0E1CDB00FF24D7E6002B0DD0EC
:104EC000FF24002D00D1D1E68022DB08D20313425B
:104ED000F1D0ED081542EED12B1CECE72B1CFF2482
:104EE000C4E62B1C041CC1E61C1C2027CC40791AEC
:104EF0008B40591E8B412343A7E72B1CB6E6131E9C
:104F000000D0B3E66AE7012515E70125D7E6C046DC
:104F1000FFFFFFFB4302590A4300C20F1B0E002094
:104F20007E2B0DDD9D2B0CDC802000040143952B96
:104F30000ADC9620C31AD9404842002A00D1081C36
:104F40007047034BD018FBE7963B9940F4E7C04607
:104F5000FFFFFF7F70B5041E3CD0C60F00D0444257
:104F6000201C01F0D9FE9E23251C1B1A962B0CDC5D
:104F7000083884406402640ADBB2321C6402DB0538
:104F8000600AD2071843104370BD992B0ADD052231
:104F9000121A211CD1400A1C011C1B318D40691EB4
:104FA0008D411543052801DD421F9540164C2C40CC
:104FB0006A0704D00F221540042D00D0043461018B
:104FC0000CD59F23181AFF281AD0A401640AC3B273
:104FD000321CD3E7002200230024CFE7E408FF2B94
:104FE00004D06402640ADBB2321CC7E7002C04D090
:104FF0008020C00304436402640A321CFF23BDE71F
:10500000321CFF230024B9E7FFFFFFFBF8B55F4622
:10501000564644464D46F0B40C034D00CE0F610A8F
:10502000440F2143C400180380465800400D8246B7
:10503000D80F84464046400A530F0343D0006D0DFD
:10504000371C83465246664500D19DE0AF1A002FBB
:1050500000DC03E1002A38D1184300D0E4E0630704
:1050600009D00F232340042B05D0231DA342A441C4
:10507000644209191C1C080200D478E0CE4B6A1C5B
:105080009A4200D105E1CD4BE4081940480752058A
:10509000490204430B0B520D371C002000211B0357
:1050A000201C1C0B0B0D1B05C54D2343520552083C
:1050B0001D4015436D006D08FF07291C39433CBC9A
:1050C00090469946A246AB46F8BDBB488542C6D03D
:1050D000802000040343382F00DDECE01F2F00DDAB
:1050E00020E12020C01B1A1C814682405846F8400F
:1050F0000243944658464A469040421E9041FB4027
:10510000624602431F1CA21A9442A4416442C91B76
:10511000091B141C0B02A2D549024F0A002F00D113
:10512000C4E0381C01F0F8FD021C083A1F2A00DD1B
:10513000B7E02821091A201C9740C8400743944033
:10514000954200DDA9E0551B691C1F2900DDD8E050
:105150001F22551B3B1C221CAB40CA40AC40651EA5
:10516000AC411343CF401C43391C002577E7480767
:10517000E4086A05C908520D371C04438E4B9D4252
:1051800048D009030B0B88E7AA1A9446002A00DCD2
:1051900098E05046002853D08748854200D15EE70A
:1051A0008020000403436246382A00DDFDE01F2A08
:1051B00000DD4BE120226046101A1A1C8240824614
:1051C000914658466246D0404A4602439046584669
:1051D00052469040421E9041424602436046C340C0
:1051E0001219A242A441644259180919141C080258
:1051F00000D434E7704B01359D4200D124E16F4B60
:1052000060081940012323401C1C0443CB071C43A6
:10521000490824E70B1C234300D1C7E180231B036B
:105220000B431B031B0B38E7013F002F64D158468B
:10523000221A9442A4416442C91A091B141C69E74A
:105240005846184300D10AE701225242944460466E
:10525000002800D0C5E058460219C2E7002F72D1DD
:10526000681C4005400D012800DCDEE05A46A21A09
:105270009442BF41C81A7F42C71B380200D488E05D
:105280005A46141BA3459241591A52428F1A664638
:1052900044E7371C00230024FFE64849AD1A394093
:1052A000DDE6271C28388740002449E7201C01F050
:1052B00033FD203038E75A461A43531E9A41D2B282
:1052C000002720E7002A00D0DDE0681C4205520DCF
:1052D000012A00DC8EE0384DA84200D1B3E05D46E3
:1052E0002A19A242A441644259180919CC0752084C
:1052F00014434908051CB2E62F48854200D0EAE66F
:10530000ADE62B1C1F3B3A1CDA40131C20296DD044
:105310003F22551BAF403C43601E84411C4300218B
:1053200000259CE6381C20381A1CC240101C202F77
:105330005ED04022D71BBB405A461A43531E9A41A7
:1053400002430027DFE6002D3CD01B4DAA4500D1CB
:1053500094E080252D047F422943382F00DDADE005
:105360001F2F00DD2CE12025ED1B081C261CA8406A
:10537000FE40AC400643651EAC413443F9405D46F7
:105380002C1BA34592415B1A5242991A5546664618
:10539000C0E6131C3B43141C002B00D0BEE60027C4
:1053A0000022002500210024E8E65A461A43531E35
:1053B0009A41D2B2002313E7FF070000FFFF7FFFEF
:1053C000FFFF0F800D1C254358D0FF43002F51D104
:1053D000041BA3459241591A5242891A5546664602
:1053E00098E69648854200D0DDE638E6002792E749
:1053F0000023A1E7081C2043002D00D0C0E00028B6
:1054000000D1FBE05846184300D128E6584602195F
:10541000A242A441644259180919141C0A0200D47A
:105420001DE6874B0125194019E6081C2043002D75
:1054300039D100286DD15946194300D1BDE0191C5E
:105440005C4666460BE6051C2A1CABE76046203826
:105450001A1CC24060469146202800D1ABE0402291
:10546000121A93405A461A43531E9A414B461A4306
:105470000023B5E6714DAA4500D06EE7191C5C46C5
:1054800055466646EBE5002D1ED10D1C254373D015
:10549000D543002D6DD15C445C4592415918524270
:1054A00089185546A3E6002849D15946194300D129
:1054B00096E0191C5C466646604DD0E50C43611EC3
:1054C0008C41E4B200215AE75C4DAA4554D05542C4
:1054D000802210040143382D00DD85E01F2D00DD02
:1054E00095E02022501B0A1C84468240201CE84084
:1054F0000243904662469440601E844142461443F3
:10550000E9405C445C459241CB185242991855469B
:105510006DE65846184300D1A1E55846271ABC420B
:105520009241C81A5242801A02026AD55846041B98
:10553000A3459241591A5242891A66468FE5584648
:10554000184336D04807E40804438020C908000304
:10555000014208D0DD08054205D15946CA085C075A
:105560001443291C6646630FC9001943E400334DF8
:1055700075E5324A9245AED1191C5C4655466EE53A
:10558000002837D05846184313D080254807E40830
:10559000C9082D0304432942E5D0D8082842E2D1A6
:1055A0005D46EA085C071443011CDCE70023002485
:1055B00073E5224D53E5002354E700270022F1E66E
:1055C0003D1C203D0A1CEA40151C202F31D04026EE
:1055D000F71BB9400C43611E8C412C430021CEE6E1
:1055E000164A0027151CDDE60C43611E8C41E4B20F
:1055F000002186E7191C5C46104D30E5191C5C46FD
:105600002DE5031C3B43D8D0011C3C1C27E5202082
:10561000404240190A1CC2409046202D0BD0402029
:10562000451BA9400C43611E8C4145462C4300217B
:1056300067E70021CEE70021F4E7C046FF0700003E
:10564000FFFF7FFFF0B5564644465F464D46F0B437
:105650001F1C0B031B0B98464B0087B0041C814694
:105660005B0DC80F161C9A460090002B51D06A4B58
:105670009A4531D08022414652030A43630FD2003B
:105680001A43664B90460025E20091469A44002456
:1056900002953B031B0B9B46FD0F7B00311C5B0DF2
:1056A000019560D05C4A934254D08021584649030A
:1056B0000143720FC9001143584A8B469B18F100F1
:1056C0000020009A04436A4003920F2C00D9ADE0F9
:1056D000534EA4003459A746404604436ED10021DE
:1056E00002250824884689460295D2E7009C029844
:1056F000C34649460194022864D0032800D1ABE296
:10570000012800D038E2019A002402400025A14679
:1057100060E0434623434AD04046002800D1C0E120
:1057200001F0FAFA031E272B00DDB3E128210D1A40
:10573000211C083B4246E9409A400D1C1543221C9F
:105740009A40A8469146374B00251B1A9A460024DA
:1057500002959EE75A4616430320002EB1D1B34668
:1057600000210220ADE75A4632431BD05B46002B96
:1057700000D18AE1584601F0CFFA272800DD7DE10B
:105780002822171A011C321C08395B46FA408B404C
:10579000171C1F43331C8B40BB46191C214B1B1A83
:1057A00000208EE70027BB460021012089E700206A
:1057B000012504248046814602956AE703250C24CE
:1057C000029566E7019C0394039D01222A40002470
:1057D000114DA146002000212403260B0C0D2405A9
:1057E000114B34432D0523402B435B005B08D2074C
:1057F000191C4846114307B03CBC90469946A24646
:10580000AB46F0BD0022802424039146024DE1E71F
:1058100000240025A146DDE7FF07000001FCFFFF93
:10582000A07400000DFCFFFFFFFF0F805546ED1A2E
:105830000495D84500D953E100D14EE1049C0025E0
:10584000013C4E4604944746A946584603020C0EB6
:105850001C430902250C23041B0C0091381C291C35
:105860000193FEF7D9FD019983464143381C8A46CE
:10587000291CFEF715FE330C090419438A450CD97F
:105880005B460919013B8C4200D947E18A4500D8A3
:1058900044E102225242934409195346CB1A181C80
:1058A000291C9846FEF7B8FD071C0198291C78436F
:1058B00082464046FEF7F4FD36040B04360C3343B3
:1058C0009A4509D91B197A1E9C4200D924E19A45B0
:1058D00000D821E1023F1B195E4632041743380C01
:1058E000BB46009E009F51463F0C32045B1A59464E
:1058F000BA46120C0F043F0C904651467A434F4370
:105900004146414356467043CF19160CBE19B14269
:1059100002D980277F02C019310C12043604120C00
:105920004018B618834200D2C4E000D1BEE0191A74
:105930004846861BB145BF417F42CF1BA74200D1DD
:1059400013E1291C381CFEF767FD019902904143C1
:10595000381C8946291CFEF7A3FD330C09041943A2
:1059600089450CD9029B0919013B8C4200D9FFE003
:10597000894500D8FCE0029F0919023F02974F4673
:10598000CF1B381C291C0597FEF746FD071C019804
:10599000291C784381460598FEF782FD36040904E8
:1059A000360C0E43B14509D936197B1EB44200D9D5
:1059B000E0E0B14500D8DDE0023F3619029D4946DE
:1059C000761A290439430B0457460A0C1B0C40462F
:1059D0004546584355437B437A43EB18070CDB1984
:1059E0009D4202D980256D0252191D0C00041B0432
:1059F000000C52191B18964235D300D1FCE001234C
:105A00001943049E994FF519002D00DCA1E04807C9
:105A100009D00F230B40042B05D00B1D8B4289416D
:105A200049428B44191C5A46D20107D5904B5C461B
:105A3000049E80271C40FF00A346F5198D4B9D4214
:105A40007ADD039C0122224000248B4DA146C1E651
:105A500080242403474627424CD13C432403240B93
:105A6000009A854DB6E63619481EB4425ED9011C2F
:105A70009642C4D1009E9E42C1D1C2E7031C283B7E
:105A8000311C99408B46002188E6301C01F044F916
:105A9000203072E6283B211C99400022884691461E
:105AA00051E6201C01F038F920303BE60021B145D9
:105AB00000D33DE7009F5A46B944B945BF417F42F4
:105AC0003F19FB18013A9C421ED2984200D97EE051
:105AD00000D1B5E0191A93462AE7894500D8ADE60A
:105AE0004846464642467708D3074608C0071E4345
:105AF0008146AAE65846204212D1044324032A1CB8
:105B0000240B89465C4D65E6A342E3D1009F4F45D7
:105B1000DBD9211A93460BE7171CDDE69B46BCE652
:105B20003C432403240B009A534D53E6B24259D808
:105B300000D18AE0011C62E75F46C9087B07039E2B
:105B40000B437C026D0501229946240B6D0D3240FA
:105B500040E64A4B049FDB1B382B10DD039C0122DF
:105B6000224000240025A14634E60121494248E7AD
:105B7000029304E71F1C21E7019C039441E71F2BBC
:105B800040DC3F48049F0C1C3A1858469140DC40CA
:105B9000904020430A1C511E8A41011C11435A4661
:105BA000DA40131C480709D00F220A40042A05D006
:105BB0000A1D8A42894149425B18111C1A0234D5D8
:105BC000039C0122224000240125A14602E6009FF9
:105BD00002214942B9448B44B945894149420919D6
:105BE000CB18A4E6009D881E6900A942AD416D4214
:105BF0002C19361900913AE7002B00D033E7002426
:105C0000009437E71F4A049C5D46121BD5402A1CAE
:105C1000202B1FD01C4E5F46A3199F403B1C1943ED
:105C20004B1E994111430023BCE75A07C9080A4398
:105C3000039F91465B0201221C0B3A400025C9E5F7
:105C40004E45C4D89346002172E6009F9F42C9D3B7
:105C5000011C0FE70023E2E7802424035F463C4356
:105C60002403240B019A8946034DB3E5FF0300008A
:105C7000FFFFFFFEFE070000FF07000002FCFFFF22
:105C80001E040000E2FBFFFF3E040000F0B55F468B
:105C900056464D464446F0B40D1C041C8046E80FA1
:105CA000814618030F03000B3F0B83B084461B484B
:105CB000009749005E00DF0F490D9246760DBB4606
:105CC00081420CD01548864210D00120B14215D037
:105CD00003B03CBC90469946A246AB46F0BD009F3F
:105CE00001202743F4D10D488642EED1604602439D
:105CF0000120002AECD10120B142E9D1009B63458B
:105D0000E6D1D045E4D1D94506D00029E0D11C43E5
:105D1000201C441EA041DBE70020D9E7FF0700005C
:105D2000F0B55F4656464D464446F0B4CD0FDE0F03
:105D3000AC461D032D0BB146374E0F034C00AB464E
:105D40005D0080463F0B640D92466D0DB44232D02B
:105D5000314EB54235D0002C0ED13843414241413D
:105D6000081C002D0BD0002919D1CC452DD065463B
:105D700068420123184318E0002DF6D1281C59462B
:105D80000A4353425341002806D1002BEDD063460D
:105D900058420123184308E00020002B05D14A4651
:105DA000504250414042012318433CBC9046994622
:105DB000A246AB46F0BD3E1C0643C9D0022040427D
:105DC000F3E75E461643C6D0F8E7AC4207DC0BDAD1
:105DD000614648424841404201231843E5E7664690
:105DE000704201231843E0E75F450AD80ED0002037
:105DF0005F45DAD265466842684140420123184354
:105E0000D3E76246504201231843CEE7D045F8D885
:105E10000020D045EED3C8E7FF070000F0B5564696
:105E20004D4644465F46F0B40D1C83B0041C0190FF
:105E3000E80F814618030F03000B3F0B84463548DB
:105E4000009749005E00DF0F490D9246760DB84677
:105E5000814234D02F48864236D0002918D0002EF7
:105E60001FD1341C67463A4353425341002C1FD084
:105E70000020002B05D142465042504140420123B0
:105E8000184303B03CBC90469946A246AB46F0BDD1
:105E90000098044360426041041C002EE2D00028B8
:105EA000E9D1C14515D04F46784201231843E8E7B0
:105EB000002BF6D04B46584201231843E1E7009FE0
:105EC00002202743DDD1C5E7674602201743D8D11A
:105ED000C3E7B14204DD4A46504201231843D0E7EC
:105EE000B14207DB00986045E4D80AD0009F00204B
:105EF0006745C6D24F467842784140420123184355
:105F0000BFE7019A5245D5D8019A00205245F1D3F6
:105F1000B7E7C046FF070000F0B5564644465F4667
:105F20004D46F0B41F1C0B031B0B9A464B0087B069
:105F3000041C80465B0DC80F161C02938146002B83
:105F400068D0694B0299994232D08022534652035D
:105F50001A43D200630F1A439246644AE00089183C
:105F600080460291002400253B031B0B9B467800D2
:105F7000FB0F321C400D039300D175E05A4B984241
:105F800069D08022594652030A43730FD2001A4344
:105F9000564B9346C018F200002303994E467140B9
:105FA0001C430F2C00D9A9E0514EA4003459A74638
:105FB00053461C4300D087E00025AA46A846082483
:105FC0000225D1E74946022D6CD0032D00D117E2FE
:105FD000012D00D058E10D40EDB20024A946002368
:105FE000A0460020002125030A0D1C052D0B1205DB
:105FF000404B2A43134023435B004C465B08E207B7
:10600000191C4046114307B03CBC90469946A24635
:10601000AB46F0BD5346234350D05346002B00D12E
:1060200084E1504600F078FE031E272B00DD76E168
:1060300028210D1A211C083B5246E9409A400D1CAC
:106040001543221C9A40AA4690462B4B00241B1A4B
:106050000293002588E75B461E430323002E9CD154
:10606000B3460022022398E75B46334321D05846CB
:10607000002800D14EE100F04FFE272800DD42E16C
:1060800028210F1A021C311C083A5B46F940934044
:106090000F1C1F43331C9340BB461A1C164B181A87
:1060A00000237AE701230B4000249946A0460E4BBB
:1060B00097E70027BB46002201236EE70021042456
:1060C0008A46884601254FE70C2403254CE7002526
:1060D0008024A9462403A846034B82E7DA4690466B
:1060E00003991D1C6FE7C046FF07000001FCFFFF7E
:1060F000E0740000FFFF0F800DFCFFFF029F160CF5
:10610000381804904046070C0004000C1204120CCE
:10611000031C5343041C3D1C7443554398463B1CCD
:1061200073436419A44644460293230C63449D427E
:1061300004D9029D802464022D1902951D0C03953B
:1061400045462C041B04240C1C1905945C46230CA6
:10615000051C58432404240C8446381C60436543C2
:106160005F438146CC44280C6044BB46814502D93C
:1061700080277F02BB442D04070C2D0C000440191E
:106180005546BC462F04E3448446280C3D0C2F1C86
:106190005743B8462F1C77434243B94647463F0C06
:1061A0009144BA46D14446434A4502D9802252021C
:1061B000B6184F463A0CB6183A0447463F043F0C0F
:1061C000B8462F1C67435D4344435843651901900B
:1061D000380C2D184244B846AC4204D901988023AB
:1061E0005B02C0180190039C029F201C6044C019F0
:1061F0006045A44147466442A4462B043C049946AA
:10620000240C4C44A046D8448018C246E244904234
:106210009241574652429146F219E245BF417F42B0
:106220004B46BC46D845BF41D4187F4263461F4306
:106230002D0C7F19B24292414C45AD4152426D4204
:106240001543019E7D19AB19E20D5B02059F1343B7
:1062500042023A439A46531E9A41C30D101C1843FA
:106260006402204380465046C0010DD545460122B8
:106270005646049C6B082A401A43F30701341A431C
:10628000760804949046B246049E634FF319002B9F
:1062900061DD404640070BD00F2244462240042ACD
:1062A00006D04246043242458041404282449046F4
:1062B0005546ED0107D5594B5646049F80201E4098
:1062C000C000B2463B18564A934200DDEAE6444617
:1062D0005546E2086807104301226C025B050A403C
:1062E0008046240B5B0D91467BE6DA4690461D1CEA
:1062F00069E680242403574627421CD13C432403EB
:10630000240B484B6DE6031C283B311C99408B46FF
:106310000022C3E6301C00F0FFFC2030ADE6283B35
:10632000211C994000228A4690468EE6201C00F0EF
:10633000F3FC203078E65846204207D10443039905
:106340002403240B89469046364B4AE63C432403FB
:10635000240B344B45E6344B049E9B1B382B06DD47
:1063600001230B4000249946A046002339E61F2B49
:1063700025DC049C2D4D4646601952464446864015
:10638000DC4082405746301C2243DF40441EA0417F
:1063900002433B1C540709D00F201040042805D0AD
:1063A000101D9042924152429B18021C1D021AD5A8
:1063B00001230B4000249946A046012311E61C4806
:1063C000049C5546001BC540281C202B16D0194E96
:1063D0005746A21997403A1C43461A43531E9A4106
:1063E00002430023D6E758075B02D2081C0B0123A7
:1063F0000B401043994680460023F2E50022EBE76C
:106400008024240350460123044319402403240B11
:106410008946044BE5E5C046FF030000FFFFFFFE91
:10642000FE070000FF07000002FCFFFF1E04000043
:10643000E2FBFFFF3E040000F8B55F4656464446C7
:106440004D46F0B40C034D00CF0F610A440F2143B9
:10645000C4001803DE0F8046B44646465800760A4C
:10646000530F3343D600C94A6D0DBA46400DB346AB
:10647000904200D1EBE062460126724094466745A7
:1064800000D1A1E02F1A002F00DC08E100283BD149
:106490005846184300D0E8E0600709D00F23234096
:1064A000042B05D0231DA342A441644209191C1CDE
:1064B0000A0200D479E0B54B6A1C9A4200D109E186
:1064C000B34BE40819404807044349025205012729
:1064D00050460B0B520D0740002000211B03201CCF
:1064E0001C0B0B0D1B05AB4D2343520552081D40E1
:1064F00015436D006D08FF07291C39433CBC9046CD
:106500009946A246AB46F8BDA0488542C4D080203B
:1065100000040343382F00DDF0E01F2F00DD24E1ED
:106520002020C01B1A1C5E468240FE403243944627
:106530005A468240101C421E9041FB406246024374
:106540001F1CA21A9442A4416442C91B091B141CBB
:106550000A02A1D549024F0A002F00D1C9E0381C18
:1065600000F0DAFB021C083A1F2A00DDBCE02821FB
:10657000231C091A9740CB401F439440954200DDED
:10658000AEE0551B691C1F2900DDDDE01F22551BF5
:106590003B1C221CAB40CA40AC40651EAC411343BF
:1065A000CF401C43391C002576E74807E4086A05FC
:1065B00001275646C908520D37400443734B9D428C
:1065C00049D009030B0B87E72A1A9446002A00DCFE
:1065D0009BE0002855D06D48854200D15CE78020C3
:1065E000000403436046382800DD09E11F2800DD70
:1065F00050E162462020801A1E1C8640B1465E464D
:10660000D6404A4632435E4686409046301C421E83
:106610009041424602436046C3401219A242A4413F
:10662000644259180919141C080200D434E7574B66
:1066300001359D4200D142E1554B600819400123CC
:1066400023401C1C0443CB071C43490824E71E437A
:1066500000D014E70FE70B1C234300D1CFE18023C8
:106660001B030B431B031B0B36E7013F002F66D1B7
:106670005E46A21B9442A4416442C91A091B141C21
:1066800066E75846184300D106E701267642B4442F
:106690006046002800D0CAE05E463219BEE7002FEF
:1066A0007AD1681C4005400D012800DCE3E05A4621
:1066B000A21A9442BF41C81A7F42C71B3E0200D4AF
:1066C00092E05846041BA3459241591A52428F1A30
:1066D000E24641E7534601271F4000240023FBE622
:1066E0002B49AD1A3940D7E6271C283887400024AB
:1066F00044E7201C00F010FB203033E75A461A43D1
:10670000531E9A41D2B200271BE7002A00D0E1E0D5
:10671000681C4605760D012E00DC91E01B4DA84259
:1067200000D1F7E05E463219A242A44164425918F2
:106730000919CC07520814434908051CACE6134854
:10674000854200D0E6E6A7E62B1C1F3B3E1CDE4040
:10675000331C202970D03F22551BAF403C43601EA4
:1067600084411C430021002596E6381C20381E1C5D
:10677000C640301C202F61D04022D71BBB405A4658
:106780001A43531E9A4102430027DAE6FF0700002E
:10679000FFFF7FFFFFFF0F80002D38D0B94DA842CB
:1067A00000D192E080252D047F422943382F00DD5F
:1067B000AAE01F2F00DD2CE12025ED1B0E1CAE40B2
:1067C000B046261CFE404246AC401643651EAC4116
:1067D0003443F9405A46141BA34592415B1A524276
:1067E000991A051CE246B3E6131C3B43141C002B0C
:1067F00000D0B1E600270022002500210024DDE6BC
:106800005A461A43531E9A41D2B2002305E70D1C83
:1068100025435AD0FF43002F53D15A46141BA3459A
:106820009241591A5242891A051CE24690E695484F
:10683000854200D0D6E62FE600278FE700239EE7AB
:10684000081C2043002D00D0C3E0002800D1F6E052
:106850005846184300D11FE658460219A242A441E7
:10686000644259180919141C0A0200D414E6864B14
:106870000125194010E6081C2043002D3AD10028BC
:1068800000D089E05946194300D1BFE0191C5C468D
:10689000E24601E6604620381A1CC2406646101CDB
:1068A000202E00D1B0E04022921B93405A461A435A
:1068B000531E9A4102430023AFE6724D00272A1C63
:1068C0009BE7704DA84200D070E7191C5C46051C80
:1068D000E246E1E5002D20D10D1C254375D0D543BE
:1068E000002D6FD15C445C45924159185242891881
:1068F000051C99E6002835D159461943DDD0191CED
:106900005C46E2465F4DC7E50C43611E8C41E4B234
:1069100000215FE7051C021C6FE75A4DA84254D0C6
:106920005542802216043143382D00DD81E01F2DB1
:1069300000DD91E02022561B0A1CB446B240261C02
:10694000EE403243904662469440661EB441424651
:106950001443E9405C445C459241CB18524299187B
:10696000051C61E6584618434CD04807E408044328
:106970008020C9080003014208D0DD08054205D186
:106980005946CA085C071443291CE246630FC90034
:106990001943E4003B4D7FE55846184300D17BE5A1
:1069A0005E46A71BBC429241C81A5242801A060298
:1069B0004CD55846041BA3459241591A5242891A94
:1069C000E24669E52F4A9042AED1191C5C46051C8F
:1069D00062E5002836D05846184313D08025480772
:1069E000E408C9082D0304432942CFD0D80828421F
:1069F000CCD15D46EA085C071443011CC6E70023BE
:106A0000002469E51F4D47E500234FE700270022DA
:106A1000F3E63D1C203D0E1CEE40351C202F2DD0F2
:106A20004026F71BB9400C43611E8C412C430021CA
:106A3000D0E60C43611E8C41E4B200218AE7191CA8
:106A40005C4629E5191C5C460E4D25E5031C3B43BD
:106A5000DCD0011C3C1C1FE52026764276190A1C5E
:106A6000F2409046202D0BD04026751BA9400C43C8
:106A7000611E8C4145462C4300216BE70021D2E783
:106A80000021F4E7FF070000FFFF7FFF70B50B1C3C
:106A9000124C09030E0B5900021C490DDD0F00209A
:106AA000A14211DD0E4881420FDC802040030643E5
:106AB0000C48401A1F280BDD0B4A521AD640321CD4
:106AC0005042002D00D1101C70BD084BE818FBE7A8
:106AD000074BC240C9188E403243F1E7FE03000065
:106AE0001D0400003304000013040000FFFFFF7FBB
:106AF000EDFBFFFF10B5041E28D000F00DF9154A7C
:106B0000121A0A2815DD0B38844024035205240B81
:106B1000520D0023002000212403181C0B0D240B10
:106B20001B0523430C4C12051C40144364006108F0
:106B300010BD031C1533211C99400B1C0B21081A96
:106B4000C44024035205240B520DE3E70022002425
:106B50000023DFE71E040000FFFF0F8043001B0E31
:106B60005A1C4102D2B270B54C0AC50F012A17DD7A
:106B7000E02292006407090B9818002200231E0DE2
:106B8000221C34050C431B494005400821400143A9
:106B900049004908ED070B1C2B43101C191C70BD44
:106BA000002B15D1002C1CD0201C00F0B5F80A28B1
:106BB0001ADC0B21091A231CCB40191C031C1533AA
:106BC0009C400D4B0903181A4005090B400DD4E7F2
:106BD000002C03D06407090B0848CEE707480021C2
:106BE000CBE700200021C8E7011C0B398C40211C99
:106BF0000024E6E7FFFF0F8089030000FF07000085
:106C0000F0B54B000D03420F5B0D6D0A15435A1C86
:106C10005205CC0FC600520D012A27DD394FDA1973
:106C2000FE2A1ADC002A35DD8001ED00431E984162
:106C30002843760F3043430704D00F230340042B2F
:106C400000D004308021C904014027D00132FF2A3E
:106C50001DD083015B0AD1B201E0FF21002358025D
:106C6000C905400AE40708432043F0BD002B06D1C4
:106C7000354311D10021002043025B0AEFE72E4388
:106C8000EBD08020ED0080042843FF22D3E7FF21D2
:106C90000023E4E717320DDA05200022C008D1B244
:106CA000FF2AE9D10028D9D08023DB0303435B020C
:106CB0005B0AD4E78022144912041543C91A1F291C
:106CC0000DDC124A371C9B18281C9F4098403B1C27
:106CD0005A1E93411843CE4030430022ABE70C4F7D
:106CE0002A1CFF1AFA40171C202909D0094A9818B3
:106CF0008540281C3043461EB041384300229AE7A5
:106D00000020F7E780FCFFFF9E03000082FCFFFFEE
:106D10007E030000A2FCFFFF1C2101231B049842FC
:106D200001D3000C10391B0A984201D3000A08391C
:106D30001B09984201D30009043902A2105C4018D3
:106D40007047C04604030202010101010000000077
:106D50000000000070B50E4B0E4D0024ED1AAD1072
:106D60001E1CAC4204D0A300F35898470134F8E746
:106D700000F0BAF8084B094D0024ED1AAD101E1CA6
:106D8000AC4204D0A300F35898470134F8E770BD33
:106D9000F0000020F0000020F000002000010020A2
:106DA00008B5034B011C186800F016F808BDC04672
:106DB000EC00002010B50023934203D0CC5CC454F7
:106DC0000133F9E710BD031C8218934202D01970F9
:106DD0000133FAE77047000070B50323CD1C9D43D3
:106DE0000835061C0C2D01D20C2501E0002D3FDBDF
:106DF0008D423DD3204B1C681A1C211C002913D046
:106E00000868431B0DD40B2B02D90B60CC181EE075
:106E10008C4202D1636813601AE0486860600C1C01
:106E200016E00C1C4968E9E7144C2068002803D1DF
:106E3000301C00F025F82060301C291C00F020F8E0
:106E4000431C15D0C41C03239C4384420AD12560F3
:106E5000201C0B300722231D9043C31A0BD05A422B
:106E6000E25008E0211A301C00F00AF80130EED19F
:106E70000C233360002070BDC0080020BC08002037
:106E800038B5074C0023051C081C236000F012F8DD
:106E9000431C03D12368002B00D02B6038BDC046B3
:106EA000C80800200023C25C0133002AFBD1581E11
:106EB00070470000094A1368002B0CD01818694667
:106EC000884202D81060181C7047054B0C22012024
:106ED0001A604042F8E7034B1360EFE7C408002054
:106EE000C8080020CC080020F8B5C046F8BC08BC93
:106EF0009E467047F8B5C046F8BC08BC9E46704731
:106F00005374617274004144433A200020563A2081
:106F10000020413A2000204131303A20000000009A
:106F200000000000000000001523000041230000C5
:106F300029230000792300005D2300003523000091
:106F4000112300000000000000000000000000000D
:106F5000592700003D2600008525000000000000A4
:106F600041646166727569740000040309041201CA
:106F70000002EF0201409A230B800001010203018D
:106F800046656174686572204D30000D0A006E61BF
:106F90006E00696E66006F7666002E0000000000CD
:106FA0000B0000000200000004000000FF00FFFFD3
:106FB000FFFF0B00000000000A00000002000000BC
:106FC00004000000FF00FFFFFFFF0A0000000000B8
:106FD0000E0000000800000004000000FF00FFFF9A
:106FE000FFFF0E0000000000090000000400000088
:106FF0001C000000FF00010001000900000000006B
:1070000008000000040000001C000000FF00000059
:1070100000001000000000000F000000040000004D
:107020001C000000FF00010301030F00000000002E
:1070300014000000050000002C000000FF0002000A
:10704000020004000000000015000000080000001D
:1070500004000000FF00FFFFFFFF0500000000002C
:1070600006000000040000001C00000006000001F3
:1070700000010600000000000700000004000000FE
:107080001C000000070001010101070000000000D2
:1070900012000000040000001C000000FF000003BC
:1070A00000030200000000001000000004000000C7
:1070B0001C000000FF0000020002000000000000B1
:1070C00013000000050000002C000000FF0003007A
:1070D0000300030000000000110000000400000095
:1070E0001C000000FF00010201020100000000007E
:1070F0000200000001000000020000000000FFFF8D
:10710000FFFF020001000000080000000100000075
:107110001800000002000004000408000100000044
:107120000900000001000000180000000300010435
:10713000010409000000000004000000010000003C
:10714000000000000400FFFFFFFF0400000000003B
:107150000500000001000000000000000500FFFF26
:10716000FFFF050001000000020000000100000018
:10717000000000000A00FFFFFFFF02000000000007
:10718000160000000200000004000000FF00FFFFE6
:10719000FFFF0600000000001700000002000000D2
:1071A00004000000FF00FFFFFFFF070000000000D9
:1071B0000C0000000300000004000000FF00FFFFBF
:1071C000FFFF0C00010000000A00000003000000A7
:1071D00004000000FF00FFFFFFFF0A0001000000A5
:1071E0000B0000000300000004000000FF00FFFF90
:1071F000FFFF0B0001000000030000000B00000077
:1072000004000000FF00FFFFFFFFFF000000000080
:107210001B0000000B00000004000000FF00FFFF47
:10722000FFFFFF00000000001C000000060000003F
:1072300000000000FF00FFFFFFFFFF000000000054
:10724000180000000600000000000000FF00FFFF23
:10725000FFFFFF0000000000190000000600000012
:1072600000000000FF00FFFFFFFFFF000100000023
:10727000160000000300000000000000FF00FFFFF8
:10728000FFFFFF00010000001700000003000000E6
:1072900000000000FF00FFFFFFFFFF0000000000F4
:1072A000160000000200000000000000FF00FFFFC9
:1072B000FFFFFF00000000001700000002000000B8
:1072C00000000000FF00FFFFFFFFFF0000000000C4
:1072D000130000000200000000000000FF00FFFF9C
:1072E000FFFFFF000000000010000000020000008F
:1072F00000000000FF00FFFFFFFFFF000000000094
:10730000120000000200000000000000FF00FFFF6C
:10731000FFFFFF000000000011000000020000005D
:1073200000000000FF00FFFFFFFFFF000000000063
:107330000D000000040000000C000000FF00010030
:10734000FFFF0D0000000000150000000500000018
:107350000C000000FF000300FFFFFF000000000022
:1073600006000000040000000C000000FF00000107
:10737000FFFFFF0000000000070000000400000005
:107380000C000000FF000101FFFFFF0000000000F3
:10739000030000000100000002000000FF00FFFFEA
:1073A000FFFFFF00000000000200000001000000DD
:1073B000020000001400FFFFFFFF020000000000B9
:1073C00006000000010000000200000006000001AD
:1073D000000106000000000007000000010000009E
:1073E0000200000007000101010107000000000089
:1073F0000000000000000000A1410000BD330000BB
:1074000083410000974100008D4100007941000058
:10741000554100007D4200006541000051410000DF
:107420006447000016470000444700009E460000E5
:10743000444700003A470000444700009E460000D1
:1074400016470000164700003A4700009E4600001D
:107450009646000096460000964600004A47000007
:10746000084B0000024B0000024B0000F84A0000ED
:10747000584A0000584A0000EE4A0000F84A00004E
:10748000584A0000EE4A0000584A0000F84A00003E
:10749000564A0000564A0000564A0000904B000031
:1074A0002C580000C857000010580000F656000085
:1074B000105800000458000010580000F656000054
:1074C000C8570000C857000004580000F6560000D6
:1074D000EC560000EC560000EC560000505A00003C
:1074E000FC600000EA620000EA620000DC6000006C
:1074F000C65F0000C65F0000CE600000DC600000D8
:10750000C65F0000CE600000C65F0000DC600000C7
:10751000C45F0000C45F0000C45F0000F2620000AE
:08752000430000000000000020
:1075280000C2010000000800FFFFFFFF080B000277
:107538000202000009040000010202000005240004
:107548001001042402060524060001052401010196
:107558000705810310001009040100020A00000059
:1075680007050202400000070583024000000000F2
:10757800FFFFFFFF00000000830000000200000082
:107588008200000000000000000000000000000071
:10759800000000000000000000000000FFFFFFFFE7
:1075A80040420F000A0000000A000000000000002E
:1075B80000000000000000000000000000000000C3
:1075C800000000000000000000000000207500001E
:1075D80000000000000000000000000000000000A3
:1075E8000000000000000000000000000000000093
:1075F8000000000000000000000000000000000083
:107608000000000000000000000000008C000020C6
:10761800DD2000003D240000AD330000153E0000D1
:10762800B52000000000000000000000000000007D
:040000030000373191
:00000001FF
